:10000E00000E1B7F7F1B0E0000040C187F7F1B0E43
:10001E0000080C057F7F1E0CC00041221A7C7D1A41
:10002E00006061120A7E7F0800060E080B3E3E0B32
:10003E0000030B080B3E3E0B00060E08093F3E0B5D
:10004E00000E137E7E1F0E0008137E7E121D0C0006
:10005E0009127E7F1013030009127E7F101C0C0004
:10006E00000C157E7E170E000030380D7E7F1D08A9
:10007E00C0C0301B7C7F0800000037F8FA34000047
:10008E0000001B7C7C1A01000000091E7C7F1800FA
:10009E0000001B7C7C1B00000000091E7C7F1800EA
:1000AE0000001B7C7C1B00000810167C7F100800D3
:1000BE000010137C7E1800000008137C7F101000C7
:1000CE00000812FCFD3A0000000812FCFC22100091
:1000DE00000061127C7F106000002011127C7E19DE
:1000EE00000000310A7C7E0D00002011127C7E196A
:1000FE00000000310A7C7E0D00002011127C7E195A
:10010E00000000310A7C7E0D00002011127C7E1949
:10011E00000000310A7C7E0D00003778F8B6000032
:10012E0000207FF8B40201000000193E7C54030049
:10013E00000001021C3C7B580000193E7C54030059
:10014E0000207FF8B40201000000237CF8B6010005
:10015E00000001022478FFB000207FF8B4020100F5
:10016E000000193E7C540300000001021C3C7B5829
:10017E000000193E7C54030000207FF8B4020100F9
:10018E000000237CF8B60100000001022478FFB0C5
:10019E0000207FF8B40201000000193E7C540300D9
:1001AE00000001021C3C7B580000193E7C540300E9
:1001BE0000207FF8B40201000000237CF8B6010095
:0801CE00000001022478FFB0DB
:1002190012000312029BE4F50C7E00E50B250CFF8E
:10022900EE350AFE740E2FF58274003EF583E493D1
:10023900FD7C00AF0C120279050CE50CC394084053
:03024900D880D387
:03000B000201D619
:0401D600C0E0C0D0F5
:1001DA00758A66758CFC0509E50970020508C394E1
:1001EA0064E50894004023750800750900E50B943E
:1001FA00C8E50A94014008750A00750B00800B7463
:0A020A0008250BF50BE4350AF50A90
:05021400D0D0D0E03263
:1002B200EF1FAC0670011E4C600A7D027CC7DCFE9B
:0402C200DDFC80ECF3
:0102C6002215
:02024C00AD07FC
:10024E00E4FB7E007480A803088006CEA2E713CEDE
:10025E0013D8F8FFEDF582EF558224FF92B4D2B693
:0A026E00C2B60BBB08DCD2B5C2B566
:010278002263
:05000300C2B6C2B522E7
:10027900AA07AF0512024CAF02A8077480088002D2
:10028900C313D8FCF4F5807F017E001202B2758099
:02029900FF2242
:10029B005389F0438901758A66758CFCC28DD28CAB
:0702AB00D2A9D2AFC2B922B3
:030000000202C732
:0C02C700787FE4F6D8FD75810C02021966
:00000001FF
