:10015900E4FDFC7F011200F612008F8F18E518608C
:10016900F77F647E0012017DE518FD7C007F011296
:0401790000F680E428
:10019F00EF1FAC0670011E4C600A7D027CC7DCFEAF
:0401AF00DDFC80EC07
:0101B3002229
:10008F00E4F51920B1157F14FE12019F30B1FD7FE9
:10009F00147E0012019F751901804920B0167F143C
:1000AF007E0012019F30B0FD7F147E0012019F75FC
:1000BF001902803020B2167F147E0012019F30B2D9
:1000CF00FD7F147E0012019F751903801720B31452
:1000DF007F147E0012019F30B3FD7F147E0012014A
:0600EF009F751904AF1912
:0100F50022E8
:1001B40010083F065B4F666D7D077F6F777F393F81
:0201C40079714F
:1000F600EF14B40800505490010B75F003A4C583A7
:1001060025F0C5837302012302012702012B020198
:100116002F02013302013B02014302014BD2A480AC
:100126000ED2A48012D2A48016D2A4801AC2A4D25F
:10013600A3D2A28016C2A4D2A3C2A2800EC2A4C217
:10014600A3D2A28006C2A4C2A3C2A274082DF8E656
:03015600F580220F
:0501C700007FE3DFFEF4
:0101CC002210
:04017D00AD07AC0618
:10018100E4FBFAED25E0FFEC33FEC3EB9FEA9E5062
:0D0191000CB2A51201C70BBB00010A80E6ED
:01019E00223E
:03000000020003F8
:0C000300787FE4F6D8FD75811902004AF0
:10000F00020159E493A3F8E493A34003F68001F2AD
:10001F0008DFF48029E493A3F85407240CC8C333F2
:10002F00C4540F4420C8834004F456800146F6DFC1
:10003F00E4800B01020408102040809001B4E47E9C
:10004F00019360BCA3FF543F30E509541FFEE493B6
:10005F00A360010ECF54C025E060A840B8E493A37D
:10006F00FAE493A3F8E493A3C8C582C8CAC583CAA8
:10007F00F0A3C8C582C8CAC583CADFE9DEE780BE60
:0101C6000038
:00000001FF
