:1008A800543A0054483A00544C3A004F563A4800DB
:0A08B8004F563A4C0020202020008B
:10039F0012096F7FE87E03120937E4FF12072D8FD2
:1003AF000F7F0112072D8F0AD3E50F648094FD5044
:1003BF0016C3E50A64809449400DD3E50A6480F8BA
:1003CF00E50F6480985006750F14750A0F12094CCB
:1003DF007BFF7A0879A87D017F011207D57BFF7A11
:1003EF000879AB7D017F021207D57BFF7A0879AFC1
:1003FF007D097F021207D5E50FFB3395E0FA7519DA
:10040F00037D047F02120616E50AFB3395E0FA75A9
:10041F0019037D0C7F021206161208F41209BC8F05
:10042F001012096F12075D8F0E8E0D8D0C8C0BE461
:10043F00FFFEFDFCAB0EAA0DA90CA80B1201B450C8
:10044F001E7B2D7D037F011209A9AF0EAE0DAD0CE2
:10045F00AC0B12022D8F148E138D128C1180157B05
:10046F002B7D037F011209A9850E14850D13850CB1
:10047F0012850B11AF14AE13AD12AC1112027CAB7F
:10048F0007AA067519037D047F011208527B2E7D82
:10049F00077F011209A9E4FFFE7DC87C42AB14AAB5
:1004AF0013A912A81112000E12027C7C007D641297
:1004BF00033CAA04AB057519027D087F011208528F
:1004CF00E510700302056EB4010E050FD3E50F643E
:1004DF008094FD4003750F7DE510B40211150FD305
:1004EF00E50A6480F8E50F6480985002050FE51067
:1004FF00B40311050AD3E50A6480F8E50F64809808
:10050F005002150AE510B4040E150AC3E50A6480FB
:10051F0094495003750AC9E50FFB3395E0FA751935
:10052F00037D047F02120616E50AFB3395E0FA7588
:10053F0019037D0C7F02120616E50FFD3395E0FCC3
:10054F00E4FF1207B17F057E00120937E50AFD337C
:10055F0095E0FC7F011207B17F057E00120937ACD1
:10056F000FEC120248AB0EAA0DA90CA80B1201B486
:10057F00600A40087BFF7A0879B38019AC0AEC1245
:10058F000248AB0EAA0DA90CA80B1201B450107B98
:10059F00FF7A0879B87D0D7F011207D502042B7BF6
:0F05AF00FF7A0879BD7D0D7F011207D502042B5D
:03000B000205BE2D
:1005BE00C0E0C0F0C083C082C0D075D000C000C003
:0D05CE0001C002C003C004C005C006C00784
:1005DB00758A66758CFC0509E50970020508C394DC
:1005EB0014E5089400400975080075090012068986
:1005FB00D007D006D005D004D003D002D001D00054
:0B060B00D0D0D082D083D0F0D0E032FD
:1007B1008F158C168D171209B37FA01207881209A5
:1007C1007CAF1512078812097CAF1712078812092E
:0407D1007C020003A3
:02072D008F1526
:10072F001209B37FA012078812097CAF1512078830
:10073F0012097C1209B37FA112078812097C1207D4
:0D074F00F88F167F01120995120003AF16F6
:01075C00227A
:10093700EF1FAC0670011E4C600A7D027CC7DCFE0F
:04094700DDFC80EC67
:01094B002289
:0D096F001208347FCC1208C27F440208C277
:10075D001208347FCC1208C27FBE1208C212086F75
:10076D008F1512086FEFFEE515FFFDAC06EC1202BA
:0B077D0043E4FBFA7980784102011789
:0909B300D2A0D2A1C2A0C2A1226F
:07000300C2A0D2A1D2A0228D
:02078800AD07BB
:10078A00E4FB7E007480A803088006CEA2E713CE9D
:10079A0013D8F8FFEDF582EF558224FF92A0D2A17B
:0607AA00C2A10BBB08DC3C
:0107B0002226
:1007F800E4FFD2A0FED2A130A00DA8067480088024
:0D08080002C313D8FC4207C2A10EBE08E8CF
:0108150022C0
:0A099500EF24FF92A1D2A1C2A1221B
:0C097C00E4FFD2A0D2A130A0010FC2A164
:01098800224C
:06096000C2A58F80D2A7A2
:080966007F027EEFDEFEDFFCE4
:01096E002266
:0A099F00C2A6120960C2A702096691
:10081600CFCDCFCECCCE12033C7C007D0A12033C5A
:04082600ED2430FF8E
:0A082A00D2A6120960C2A7020966F7
:10090B00AE07BE0104ED148006BE0209ED243F4480
:06091B0080FF12099F227B
:10094C007F3812099F7F0C12099F7F0612099F7F27
:04095C000102099FEC
:0A09A900AC0312090BAF0402082A88
:0607D5008B158A1689173E
:1007DB0012090BE4FDAB15AA16A9178D82758300C0
:0C07EB001202FDFF600612082A0D80E9D2
:0107F70022DF
:0C06FA007F0AEA24FFFDE434FFFC7E00D0
:080706008E1C8F1D8C1E8D1F3F
:10070E007F017E00E4FBEBC3951FE51E6480F87449
:0E071E008098500AAC1CAD1D12032A0B80E817
:01072C0022AA
:040852008A178B185E
:1008560012090BAA19EAD39400400D1206FAAC1736
:08086600AD181208161A80ED0E
:01086E002267
:1006160012090BC3EA64809480400B7F2B12082AD0
:100626008A1A8B1B800E7F2D12082AC3E49BF51BAA
:10063600E49AF51AAA19EAD39400400D1206FAAC08
:090646001AAD1B1208161A80ED12
:01064F002288
:040650008A228B234C
:1006540012090BAA24EAD3940040297F101206FC45
:10066400AC22AD23CFCDCFCECCCE12033CEF540F72
:10067400FEC3940AEE5004243080022437FF12088B
:040684002A1A80D1DD
:01068800224F
:0406C2008A278B28D0
:1006C60012090BAA29EAD394004028EA24FFFDE484
:1006D60034FFFC7F027E00120706AC27AD28CFCD83
:1006E600CFCECCCE12033CEF54012430FF12082AA1
:0306F6001A80D295
:0106F90022DE
:10083400C2AFD2B7C2B77FE3DFFED2B77F1DDFFE00
:0D084400A2B7E433FE7FE3DFFED2AFAF06C4
:010851002284
:10092100C2AFC2B77E03DEFEEF24FF92B77E16DEB2
:05093100FED2B7D2AFB9
:01093600229E
:10088C00C2AFC2B77F01DFFED2B77F01DFFEA2B7D6
:0B089C00E433FE7F16DFFED2AFAF0694
:0108A700222E
:0208C200AD0780
:1008C400E4FCA8047401088002C333D8FC5DFF1261
:0608D40009210CBC08EC38
:0108DA0022FB
:10086F00E4FDFC12088CEF600DA8047401088002EF
:0C087F00C333D8FC42050CBC08E9AF05EF
:01088B00224A
:0509BC00AF2CE4F52C56
:0109C1002213
:1008DB00E4FF20B1020F2220B0037F022220B203DB
:0808EB007F032220B3027F0409
:0108F30022E2
:10068900852A2B1208DB8F2AE52BB40107E52A708E
:1006990003752C01E52BB40207E52A7003752C02BA
:1006A900E52BB40307E52A7003752C03E52BB40485
:0806B90007E52A7003752C040B
:0106C1002216
:1008F4005389F0438901758A66758CFCC28DD28C4C
:07090400D2A9D2AFC2B92253
:10000E00EC4D6011E8497017ED33EC3304600DE4EC
:10001E00FCFFFEFD22E933E8330470F80202E81219
:10002E0002B358046009E4CC24815006285009021A
:10003E0002F22840030202EFC0E0EB4A7044B9809E
:10004E0006D0E0FB0202DEEF4E701CBD8008EBFF17
:10005E00EAFEE9FD80EBE98DF0A4FEE5F00200F783
:10006E00E9CDF9EAFEEBFFEF89F0A4FCE5F0CE89CD
:10007E00F0A42EFFE435F0CD89F0A42DFEE435F08A
:10008E008067EF4E7005BD80D780C3EF8BF0A4ACB8
:10009E00F0EE8BF0A42CFCE435F0F8EF8AF0A42CF3
:1000AE00E5F038FCE433CB8DF0A42CFCE5F03BF806
:1000BE00EE8AF0A42CFCE5F038F8E433CF89F0A4F6
:1000CE002CFCE5F038CF3400CE89F0A42FFFE5F0FC
:1000DE003EFEE433C98DF0A42EFEE5F039CD8AF054
:1000EE00A42FFFE5F03EFEE43DFD33D0E0FB5007CC
:1000FE000BBB000F0202F2EC2CFCEF33FFEE33FED3
:06010E00ED33FD0202CA00
:100114000202F2EC5D046005E8590470030202E88F
:100124001202B3580460F6EC4860F2EC7004FDFE71
:10013400FF22C860DB2481C85009C39860025006BE
:100144000202EF9850CAF582E9294B4A7005AB8246
:100154000202DE75F0007C1A7880C3EF9BEE9AED04
:1001640099400DC3EF9BFFEE9AFEED99FDE842F036
:10017400DC23ACF0D0E0FFD0E0FED0E0FDAB822089
:10018400E7101BEB60BAEC2CFCEF33FFEE33FEED13
:1001940033FD0202CAE803F830E705C0F075F00049
:1001A400EF2FFFEE33FEED33FD40B830E7C280AAF7
:1001B40074F8CC6480CCC86480C8F58204604FC3F2
:1001C400EB9FF5F0EA9E42F0E99D42F0E89C45F091
:1001D400603C501DE5825FFFE582D313CB5BCBF41B
:1001E4002B5582FB50280ABA002409B90020088044
:1001F4001DE5825BFBE582D313CF5FCFF4C3132FDE
:100204005582FF50090EBE00050DBD00010CC3EB65
:100214009FF5F0EA9E42F0E99D42F0E89C45F060CB
:0902240007CC4820E701B3EC22ED
:10022D00ED33EC33600A047003BD8004ECB2E7FCDF
:01023D00229E
:10023E0075F020800E75F010800575F0087D007E3B
:10024E00007F003392D530D503120391EC3340106A
:10025E00EF33FFEE33FEED33FDEC33FCD5F0ED2244
:0E026E00E5F0247EA2D513CC92E7CDCEFF2280
:10027C00EDD2E7CD33EC3392D524814006E4FFFE7A
:10028C00FDFC22FCE4CFCECDCC24E0501174FF80D9
:10029C00EDC3CC13CCCD13CDCE13CECF13CF047076
:0702AC00F030D5DE020391E2
:1002B300E9D2E7C933E833F892D5EDD2E7CD33EC91
:0702C30033FC5002B2D5220A
:1002CA00EC30E7100FBF000C0EBE00080DBD000495
:1002DA000BEB6014A2D5EB13FCED92E7FD2274FF41
:1002EA00FCFDFEFF22E480F8A2D574FF13FC7D809A
:0302FA00E480EFAE
:0300000002098969
:0C098900787FE4F6D8FD75812C02039FF6
:1002FD00BB010CE58229F582E5833AF583E02250B6
:10030D0006E92582F8E622BBFE06E92582F8E222FF
:0D031D00E58229F582E5833AF583E4932219
:10032A00EF8DF0A4A8F0CF8CF0A428CE8DF0A42EE7
:02033A00FE22A1
:10033C00BC000BBE0029EF8DF084FFADF022E4CCA5
:10034C00F875F008EF2FFFEE33FEEC33FCEE9DEC6E
:10035C00984005FCEE9DFE0FD5F0E9E4CEFD22EDB4
:10036C00F8F5F0EE8420D21CFEADF075F008EF2FFE
:10037C00FFED33FD4007985006D5F0F222C398FDEF
:05038C000FD5F0EA228C
:0E039100C3E49FFFE49EFEE49DFDE49CFC227D
:00000001FF
