:10000E001203C01204158F2EE52EB4010CE52D70CF
:10001E00047F0180027F008F2DE52EB40207E4F5E8
:10002E002BF52AF52CE52E64037033E52BFD7C00B1
:10003E00E4FF1203277F057E001203D7E52AFD7C1D
:10004E00007F011203277F057E001203D7E52CFDEA
:10005E007C007F021203277F057E001203D7E52E58
:10006E00B40415E4FF1202A78F2B7F011202A78F93
:10007E002A7F021202A78F2CE52B75F00A84FD7CD5
:10008E00007F01120403E52B75F00A84E5F0FD7C78
:10009E00007F021204037D117C007F03120403E52E
:1000AE002A75F00A84FD7C007F04120403E52A758C
:1000BE00F00A84E5F0FD7C007F051204037D117CBF
:1000CE00007F06120403E52C75F00A84FD7C007F88
:1000DE0007120403E52C75F00A84E5F0FD7C007F21
:0700EE0008120403020011D7
:10030000E52D6022052CE52CC394644019E4F52CFE
:10031000052AE52A943C400EE4F52A052BE52B94AA
:070320003C4003E4F52B2231
:03000B000201816E
:10018100C0E0C0F0C083C082C0D075D000C000C044
:0D01910001C002C003C004C005C006C007C5
:10019E00758A66758CFC0525E52570020524C394C9
:1001AE0014E5249400400975240075250012026E92
:1001BE000527E52770020526C39402E52694004024
:1001CE000975260075270012038C0529E529700292
:0F01DE000528640A45287007F528F52912030043
:1001ED00D007D006D005D004D003D002D001D00066
:0B01FD00D0D0D082D083D0F0D0E03210
:1003D700EF1FAC0670011E4C600A7D027CC7DCFE75
:0403E700DDFC80ECCD
:0103EB0022EF
:05041500AF31E4F531F8
:01041A0022BF
:1003A700E4FF20B1020F2220B0037F022220B20314
:0803B7007F032220B3027F0442
:0103BF00221B
:10026E00852F301203A78F2FE530B40107E52F70CD
:10027E0003753101E530B40207E52F7003753102C5
:10028E00E530B40307E52F7003753103E530B40490
:08029E0007E52F700375310420
:0102A6002235
:10034B00090900100A0A0A0A0A0A0A12123F065B76
:10035B004F666D7D077F6F777F393F797100400165
:02036B00080187
:09040300AE0574092FF8A60622CB
:10020800E4F580EF14B40800505490022075F00310
:10021800A4C58325F0C5837302023802023C02029A
:1002280040020244020248020250020258020260DE
:10023800D2A4800ED2A48012D2A48016D2A4801A8E
:10024800C2A4D2A3D2A28016C2A4D2A3C2A2800EF4
:10025800C2A4C2A3D2A28006C2A4C2A3C2A274121C
:060268002DF8E6F58022EE
:10038C0074092508F8E6FD7C00AF08120208050880
:0A039C00E508D3940840037508013A
:0103A6002234
:1003C0005389F0438901758A66758CFCC28DD28C85
:0703D000D2A9D2AFC2B9228D
:100327008F328C338D3412040C7FA01202D7120344
:10033700ECAF321202D71203ECAF341202D712031A
:04034700EC020003C1
:0202A7008F3294
:1002A90012040C7FA01202D71203ECAF321202D74C
:1002B9001203EC12040C7FA11202D71203EC1203F1
:0D02C9006E8F337F011203F9120003AF3373
:0102D6002205
:09040C00D2A0D2A1C2A0C2A1221B
:07000300C2A0D2A1D2A0228D
:0202D700AD0771
:1002D900E4FB7E007480A803088006CEA2E713CE53
:1002E90013D8F8FFEDF582EF558224FF92A0D2A131
:0602F900C2A10BBB08DCF2
:0102FF0022DC
:10036E00E4FFD2A0FED2A130A00DA80674800880B2
:0D037E0002C313D8FC4207C2A10EBE08E85E
:01038B00224F
:0A03F900EF24FF92A1D2A1C2A122BD
:0C03EC00E4FFD2A0D2A130A0010FC2A1FA
:0103F80022E2
:030000000200F506
:0C00F500787FE4F6D8FD75813402013CF0
:1001010002000EE493A3F8E493A34003F68001F206
:1001110008DFF48029E493A3F85407240CC8C333FF
:10012100C4540F4420C8834004F456800146F6DFCE
:10013100E4800B010204081020408090034BE47E10
:10014100019360BCA3FF543F30E509541FFEE493C3
:10015100A360010ECF54C025E060A840B8E493A38A
:10016100FAE493A3F8E493A3C8C582C8CAC583CAB5
:10017100F0A3C8C582C8CAC583CADFE9DEE780BE6D
:01036D00008F
:00000001FF
