:10035800414444522020434D4420204E554D003006
:0E036800302020202030302020203030300087
:1001E4001203DC7BFF7A0379587D017F011203350A
:1001F4007BFF7A0379677D017F0212033512046E57
:1002040012040FEF700612041CEF60F41204748FD2
:100214002B1204778F2AE52BFB7A007518027D01D7
:100224007F02120291E52AFB7A007518027D077F8E
:1002340002120291E52AB415021529E52AB409022D
:100244000529E529FB7A007518037D0C7F0212034A
:030254009480ADE6
:1003C700EF1FAC0670011E4C600A7D027CC7DCFE85
:0403D700DDFC80ECDD
:0103DB0022FF
:06040000C2A58F80D2A707
:080406007F027EEFDEFEDFFC49
:01040E0022CB
:0A044B00C2A6120400C2A7020406B4
:10037600CFCDCFCECCCE12018F7C007D0A12018F5D
:04038600ED2430FF33
:0A038A00D2A6120400C2A702040666
:1003B100AE07BE0104ED148006BE0209ED243F44E0
:0603C10080FF12044B2234
:1003DC007F3812044B7F0C12044B7F0612044B7FA8
:0403EC000102044BBB
:0A045500AC031203B1AF0402038AE6
:060335008B148A158916E5
:10033B001203B1E4FDAB14AA15A9168D82758300C7
:0C034B00120150FF600612038A0D80E9C9
:010357002283
:0C0302007F0AEA24FFFDE434FFFC7E00CB
:08030E008E198F1A8C1B8D1C47
:100316007F017E00E4FBEBC3951CE51B6480F8744B
:0E0326008098500AAC19AD1A12017D0B80E8C8
:0103340022A6
:040394008A168B1723
:100398001203B1AA18EAD39400400D120302AC1656
:0803A800AD171203761A80ED77
:0103B000222A
:100257001203B1C3EA64809480400B7F2B12038A98
:100267008A228B23800E7F2D12038AC3E49BF523FA
:10027700E49AF522AA21EAD39400400D120302ACB6
:0902870022AD231203761A80ED6A
:01029000224B
:040291008A168B1727
:100295001203B1AA18EAD3940040297F101203046F
:1002A500AC16AD17CFCDCFCECCCE12018FEF540FFC
:1002B500FEC3940AEE5004243080022437FF120353
:0402C5008A1A80D140
:0102C9002212
:0402CA008A268B27CE
:1002CE001203B1AA28EAD394004028EA24FFFDE4E1
:1002DE0034FFFC7F027E0012030EAC26AD27CFCD7D
:1002EE00CFCECCCE12018FEF54012430FF12038AF1
:0302FE001A80D291
:0103010022D9
:0B043500D288C289D2A8D2AFD2B82270
:1003F0005389F0438901E4F58AF58CC28DC28C22C1
:0B044000AD07AC068C8CAF058F8A2244
:09045F00AF8CEFFEAD8AEDFF2227
:06046800EF24FF928C223C
:06046E001203F002043548
:0D040F00E50F6006E4F50F7F01227F00225B
:0D041C00E50D6006E4F50D7F01227F002252
:03047400AF0C22A8
:03047700AF0B22A6
:03000300020006F2
:10000600C0E0C0F0C083C082C0D075D000C000C0C0
:1000160001C002C003C004C005C006C007E50870E1
:100026000CFFFE1204407F011204688049E5086453
:1000360001704912045F8E098F0AE4FFFE12044024
:10004600D3E50A94D4E50994304010E50A94B0E566
:100056000994365006750802020135D3E50A940A5A
:10006600E50994284010E50A94F2E509942B500618
:10007600750D0102012D750801020135E5086402BE
:10008600600302013512045F8E098F0AE4FFFE1237
:100096000440D3E50A946CE5099402402BE50A94E2
:1000A60054E50994065021E50E131313541F24102A
:1000B600F8C000E6FFE50E5407FEF874010880025A
:1000C600C333D8FCF45F8033D3E50A94D6E50994AC
:1000D60006402FE50A94BEE509940A5025E50E135D
:1000E6001313541F2410F8C000E6FFE50E5407FE54
:1000F600F87401088002C333D8FC4FD000F6050E11
:100106008006750801750E00E50EC3942040207523
:100116000E00E511F4B5100FE513F4B512098510BC
:100126000C85120B750F01E4FF120468750800D0E8
:1001360007D006D005D004D003D002D001D000D01D
:0A014600D0D082D083D0F0D0E03298
:03000000020429CE
:0C042900787FE4F6D8FD75812B0201E419
:10015000BB010CE58229F582E5833AF583E0225064
:1001600006E92582F8E622BBFE06E92582F8E222AE
:0D017000E58229F582E5833AF583E49322C8
:10017D00EF8DF0A4A8F0CF8CF0A428CE8DF0A42E96
:02018D00FE2250
:10018F00BC000BBE0029EF8DF084FFADF022E4CC54
:10019F00F875F008EF2FFFEE33FEEC33FCEE9DEC1D
:1001AF00984005FCEE9DFE0FD5F0E9E4CEFD22ED63
:1001BF00F8F5F0EE8420D21CFEADF075F008EF2FAD
:1001CF00FFED33FD4007985006D5F0F222C398FD9E
:0501DF000FD5F0EA223B
:00000001FF
