:1000C90075A0FE1200E712000E8F0AE50AB401F6C8
:0E00D900050BE50BC3940240EDE4F50B80E847
:03000B000200757B
:0B007500C0E0C0D075D000C000C00784
:10008000758A66758CFC0509E50970020508C3943C
:10009000F4E50894014029750800750900E50B7026
:1000A0000DAFA07801EF08800123D8FDF5A0E50B86
:1000B000B4010DAFA07801EF08800103D8FDF5A0D1
:0900C000D007D000D0D0D0E0320E
:1000E7005389F0438901758A66758CFCC28DD28C61
:0700F700D2A9D2AFC2B92269
:1000FE00EF1FAC0670011E4C600A7D027CC7DCFE51
:04010E00DDFC80ECA8
:0101120022CA
:10000E00E4F50C20B1157F14FE1200FE30B1FD7F19
:10001E00147E001200FE750C01804920B0167F146C
:10002E007E001200FE30B0FD7F147E001200FE75C1
:10003E000C02803020B2167F147E001200FE30B209
:10004E00FD7F147E001200FE750C03801720B31482
:10005E007F147E001200FE30B3FD7F147E0012006E
:06006E00FE750C04AF0C4E
:010074002269
:03000000020113E7
:0C011300787FE4F6D8FD75810C0200C96D
:00000001FF
