:0F0080001200037F4212009B7F3A12009B80FE0A
:03002300020026B2
:10002600C0E0C0F0C083C082C0D075D000C000C0A0
:1000360001C002C003C004C005C006C00730980A4C
:100046008599A0AF9912009BC298D007D006D0051B
:10005600D004D003D002D001D000D0D0D082D0833B
:05006600D0F0D0E032F3
:10006B00EF1FAC0670011E4C600A7D027CC7DCFEE4
:04007B00DDFC80EC3C
:01007F00225E
:1000030075985043878053890F438920758BF47506
:0B0013008DF4C2ABD28ED2AFD2AC2273
:08009B008F993099FDC29922F2
:0300000002008F6C
:0C008F00787FE4F6D8FD7581080200803F
:00000001FF
