:1002650048656C6C6F0057656C636F6D6520746FC6
:08027500204368696E6121005D
:100097001202927B417A007D017C007F011202DC13
:1000A7007BFF7A0279657D037F01120207750D02D6
:1000B7007B427A007D097C007F01120248750D02A0
:1000C7007BA87AFF7D0C7C007F01120129750D0248
:1000D7007BA57A007D017C007F02120163750D0804
:1000E7007BA57A007D047C007F0212019C7BDF7A6E
:1000F700007D0D7C007F021202DC7B437A007D0EBF
:100107007C007F021202DC7BFF7A02796B7D107F15
:10011700011202077F181202D27FF47E0112027DBC
:0201270080F264
:0602A600C2A58F80D2A763
:0902AC00007F027EC7DEFEDFFCCC
:0102B5002226
:0A02D200C2A61202A6C2A70202ACE7
:10022A00CFCDCFCECCCE1200427C007D0A12004246
:04023A00ED2430FF80
:0A023E00D2A61202A6C2A70202AC6B
:100292007F381202D27F0C1202D27F061202D27F64
:0402A200010202D281
:1002B600EDBF0103148002243F4480FF1202D222C4
:0802DC001202B6AF0302023E5C
:060207008B088A09890A38
:10020D001202B6E4FDAB08AA09A90A8D8275830016
:0C021D00120003FF600612023E0D80E993
:0102290022B2
:0C01D4007F0AEA24FFFDE434FFFC7E00FB
:0801E0008E108F118C128D139B
:1001E8007F017E00E4FBEBC39513E5126480F8748D
:0E01F8008098500AAC10AD111200300B80E858
:0102060022D5
:040248008A0B8B0C86
:10024C001202B6AA0DEAD39400400D1201D4AC0BE5
:08025C00AD0C12022A1A80ED1C
:010264002277
:100129001202B6C3EA64809480400B7F2B12023E10
:100139008A0E8B0F800E7F2D12023EC3E49BF50FB2
:10014900E49AF50EAA0DEAD39400400D1201D4AC3D
:090159000EAD0F12022A1A80ED0E
:01016200227A
:040163008A0B8B0C6C
:100167001202B6AA0DEAD3940040297F101201D6D5
:10017700AC0BAD0CCFCDCFCECCCE120042EF540F8F
:10018700FEC3940AEE5004243080022437FF120283
:040197003E1A80D1BB
:01019B002241
:04019C008A0B8B0C33
:1001A0001202B6AA0DEAD394004028EA24FFFDE427
:1001B00034FFFC7F027E001201E0AC0BAD0CCFCD12
:1001C000CFCECCCE120042EF54012430FF12023EBB
:0301D0001A80D2C0
:0101D3002209
:10027D00EF1FAC0670011E4C600A7D027CC7DCFED0
:04028D00DDFC80EC28
:01029100224A
:030000000202C633
:0C02C600787FE4F6D8FD758113020097E4
:10000300BB010CE58229F582E5833AF583E02250B2
:1000130006E92582F8E622BBFE06E92582F8E222FC
:0D002300E58229F582E5833AF583E4932216
:10003000EF8DF0A4A8F0CF8CF0A428CE8DF0A42EE4
:02004000FE229E
:10004200BC000BBE0029EF8DF084FFADF022E4CCA2
:10005200F875F008EF2FFFEE33FEEC33FCEE9DEC6B
:10006200984005FCEE9DFE0FD5F0E9E4CEFD22EDB1
:10007200F8F5F0EE8420D21CFEADF075F008EF2FFB
:10008200FFED33FD4007985006D5F0F222C398FDEC
:050092000FD5F0EA2289
:00000001FF
