:0402E20002250000F1
:100224001202AB0526E52670020525750C03FBAA10
:10023400257D017F011202637FE87E03120296800E
:01024400E2D7
:0602BF00C2A58F80D2A74A
:0802C5007F027EEFDEFEDFFC8C
:0102CD00220E
:0A02CE00C2A61202BFC2A70202C5B9
:10024500CFCDCFCECCCE1200427C007D0A1200422B
:04025500ED2430FF65
:0A025900D2A61202BFC2A70202C51E
:10028000AE07BE0104ED148006BE0209ED243F4412
:0602900080FF1202CE22E5
:1002AB007F381202CE7F0C1202CE7F061202CE7F57
:0402BB00010202CE6C
:0A02D800AC03120280AF04020259C9
:060201008B228A238924F0
:10020700120280E4FDAB22AA23A9248D8275830004
:0C021700120003FF60061202590D80E97E
:0102230022B8
:0C01CE007F0AEA24FFFDE434FFFC7E0001
:0801DA008E0D8F0E8C0F8D10AD
:1001E2007F017E00E4FBEBC39510E50F6480F87499
:0E01F2008098500AAC0DAD0E1200300B80E864
:0102000022DB
:040263008A0A8B0B6D
:10026700120280AA0CEAD39400400D1201CEAC0A08
:08027700AD0B1202451A80EDE7
:01027F00225C
:10012300120280C3EA64809480400B7F2B12025931
:100133008A168B17800E7F2D120259C3E49BF51785
:10014300E49AF516AA15EAD39400400D1201CEAC39
:0901530016AD171202451A80EDE9
:01015C002280
:04015D008A1A8B1B54
:10016100120280AA1CEAD3940040297F101201D008
:10017100AC1AAD1BCFCDCFCECCCE120042EF540F77
:10018100FEC3940AEE5004243080022437FF120289
:04019100591A80D1A6
:010195002247
:040196008A1F8B2011
:10019A00120280AA21EAD394004028EA24FFFDE44F
:1001AA0034FFFC7F027E001201DAAC1FAD20CFCDF6
:1001BA00CFCECCCE120042EF54012430FF120259A6
:0301CA001A80D2C6
:0101CD00220F
:10029600EF1FAC0670011E4C600A7D027CC7DCFEB7
:0402A600DDFC80EC0F
:0102AA002231
:0300000002009764
:0C009700787FE4F6D8FD7581260200DEBB
:10000300BB010CE58229F582E5833AF583E02250B2
:1000130006E92582F8E622BBFE06E92582F8E222FC
:0D002300E58229F582E5833AF583E4932216
:10003000EF8DF0A4A8F0CF8CF0A428CE8DF0A42EE4
:02004000FE229E
:10004200BC000BBE0029EF8DF084FFADF022E4CCA2
:10005200F875F008EF2FFFEE33FEEC33FCEE9DEC6B
:10006200984005FCEE9DFE0FD5F0E9E4CEFD22EDB1
:10007200F8F5F0EE8420D21CFEADF075F008EF2FFB
:10008200FFED33FD4007985006D5F0F222C398FDEC
:050092000FD5F0EA2289
:1000A300020224E493A3F8E493A34003F68001F24D
:1000B30008DFF48029E493A3F85407240CC8C3335E
:1000C300C4540F4420C8834004F456800146F6DF2D
:1000D300E4800B01020408102040809002E2E47ED9
:1000E300019360BCA3FF543F30E509541FFEE49322
:1000F300A360010ECF54C025E060A840B8E493A3E9
:10010300FAE493A3F8E493A3C8C582C8CAC583CA13
:10011300F0A3C8C582C8CAC583CADFE9DEE780BECB
:0102E6000017
:00000001FF
