:1008320020200020202D20202D20200020203A20C2
:05084200203A20200017
:10041F0012064FE518FB3395E0FA750C027D017F4C
:10042F00011207E8E519FB3395E0FA750C027D041C
:10043F007F011207E8E51AFB3395E0FA750C027D90
:10044F00077F011207E8E51BFB3395E0FA750C02F5
:10045F007D017F021207E8E51CFB3395E0FA750C6E
:10046F00027D047F021207E8E51DFB3395E0FA7564
:09047F000C027D077F020207E870
:10000E00E524B4020B0521E52175F0068485F02167
:10001E00E524640360030200E874182521F806D372
:10002E00E518648094E34003E4F518D3E519648081
:10003E00948C4003751901E51964016023E5196478
:10004E0003601DE51964056017E51964076011E585
:10005E00196408600BE519640A6005E519B40C0B08
:10006E00D3E51A6480949F404D8048E5196404607E
:10007E0011E5196406600BE51964096005E519B40C
:10008E000B0BD3E51A6480949E402B8026E519B4A1
:10009E000224E51875F0041202DDAFF0EF700BD3F9
:1000AE00E51A6480949D400E8009D3E51A6480940D
:1000BE009C4003751A01D3E51B648094974003E4BA
:1000CE00F51BD3E51C648094BB4003E4F51CD3E51B
:1000DE001D648094BB4003E4F51DE52464046003B5
:1000EE000201E374182521F816C3E5186480948084
:1000FE005003751863C3E519648094815003751914
:10010E000CE51964016023E5196403601DE51964AB
:10011E00056017E51964076011E5196408600BE5C1
:10012E0019640A6005E519B40C17C3E51A648094C6
:10013E00815003751A1FD3E51A6480949F40728014
:10014E006DE51964046011E5196406600BE5196428
:10015E00096005E519B40B17C3E51A648094815044
:10016E0003751A1ED3E51A6480949E4044803FE5C1
:10017E00196402703CE51875F0041202DDAFF0EF61
:10018E007017C3E51A648094815003751A1DD3E568
:10019E001A6480949D401A8015C3E51A6480948178
:1001AE005003751A1CD3E51A6480949C4003751A8B
:1001BE0001C3E51B648094805003751B17C3E51CB7
:1001CE00648094805003751C3BC3E51D648094804D
:1001DE005003751D3BE5217014E523B4010F7BFF21
:1001EE007A0879327D017F011207A78011E518FB8D
:1001FE003395E0FA750C027D017F011207E8E521C7
:10020E00B40114E523B4010F7BFF7A0879327D0423
:10021E007F011207A78011E519FB3395E0FA750CE3
:10022E00027D047F011207E8E521B40214E523B430
:10023E00010F7BFF7A0879327D077F011207A780B5
:10024E0011E51AFB3395E0FA750C027D077F01125A
:10025E0007E8E521B40314E523B4010F7BFF7A0808
:10026E0079327D017F021207A78011E51BFB3395C2
:10027E00E0FA750C027D017F021207E8E521B40455
:10028E0014E523B4010F7BFF7A0879327D047F02D7
:10029E001207A78011E51CFB3395E0FA750C027D61
:1002AE00047F021207E8E521B40512E523B4010D1F
:1002BE007BFF7A0879327D077F020207A7E51DFBD7
:0F02CE003395E0FA750C027D077F021207E822D4
:1005520012085C1200031208057BFF7A0879357DC8
:10056200017F011207A77BFF7A08793E7D017F0296
:100572001207A71204EF1204888F24E524B401168F
:10058200E5227007752201F521800BE522B40106F0
:10059200E4F5221204EFE5221460080470D8120474
:0805A2001F80D312000E80CE71
:03000B000206CA20
:0906CA00C0E0C0D075D000C007EB
:1006D300758A66758CFC0520E5207002051FC3949E
:1006E300F4E51F94014012751F00752000E5237087
:0906F300047F0180027F008F23C7
:0706FC00D007D0D0D0E0329E
:06089500C2A58F80D2A76E
:08089B007F027EEFDEFEDFFCB0
:0108A3002232
:0A08A400C2A6120895C2A702089B25
:1007CA00CFCDCFCECCCE12033E7C007D0A12033EA3
:0407DA00ED2430FFDB
:0A07DE00D2A6120895C2A702089BDC
:10081C00AE07BE0104ED148006BE0209ED243F4470
:06082C0080FF1208A42267
:10085C007F381208A47F0C1208A47F061208A47F0C
:04086C00010208A4D9
:0A08AE00AC0312081CAF040207DEC1
:0607A7008B088A09890A93
:1007AD0012081CE4FDAB08AA09A90A8D8275830005
:0C07BD001202FFFF60061207DE0D80E94B
:0107C900220D
:0C0774007F0AEA24FFFDE434FFFC7E0055
:080780008E0D8F0E8C0F8D1001
:100788007F017E00E4FBEBC39510E50F6480F874ED
:0E0798008098500AAC0DAD0E12032C0B80E8B9
:0107A6002230
:0407E8008A0A8B0BE3
:1007EC0012081CAA0CEAD39400400D120774AC0A30
:0807FC00AD0B1207CA1A80EDD3
:0108040022D1
:1006900012081CC3EA64809480400B7F2B1207DE93
:1006A0008A168B17800E7F2D1207DEC3E49BF51789
:1006B000E49AF516AA15EAD39400400D120774AC1B
:0906C00016AD171207CA1A80EDED
:0106C900220E
:040703008A278B288E
:1007070012081CAA29EAD3940040297F1012077601
:10071700AC27AD28CFCDCFCECCCE12033EEF540FB2
:10072700FEC3940AEE5004243080022437FF1207D8
:04073700DE1A80D175
:01073B00229B
:04073C008A2C8B2D4B
:1007400012081CAA2EEAD394004028EA24FFFDE4F4
:1007500034FFFC7F027E00120780AC2CAD2DCFCD84
:10076000CFCECCCE12033EEF54012430FF1207DE71
:030770001A80D21A
:010773002263
:0908B800071818061612080F06B5
:05000300C2B5C2B622E7
:0605AA008C088D09AB076F
:1005B000D2B5E4FD7E007401A805088005C333CEE2
:1005C00033CED8F9FFEBF582EF558224FF92B4D2F7
:1005D000B6C2B60DBD08DDE4FD7E007401A80508B5
:1005E0008005C333CE33CED8F9FFE5085EFEE509BA
:1005F0005F4E24FF92B4D2B6C2B60DBD08DBC2B5C1
:0106000022D7
:02060100AD0743
:10060300E4F9430501D2B5FB7E007401A803088019
:1006130005C333CE33CED8F9FFEDF582EF558224EF
:10062300FF92B4C2B6D2B60BBB08DDE4FBD2B6C2AE
:10063300B630B40DA8037401088002C333D8FC425A
:0B064300010BBB08E8C2B5C2B4AF0158
:01064E002289
:10087000EF75F00A84C454F0FEEF75F00A84EE259B
:02088000F0FF87
:010882002253
:0308830012060159
:0E088600EFC4540F75F00AA4FEEF540F2EFFBE
:010894002241
:1004EF00E4FDFC7F8E1205AAAF18120870EFFD7F96
:1004FF008C1205AAAF19120870EFFD7F881205AA9A
:10050F00AF1A120870EFFD7F861205AAAF1B1208F3
:10051F0070EFFD7F841205AAAF1C120870EFFD7FEC
:10052F00821205AAAF1D120870EFFD7F801205AA77
:10053F00AF1E120870EFFD7F8A1205AA7D807F8E95
:03054F000205AAF8
:10064F007F8C1208838F187F881208838F197F86FB
:10065F001206011208868F1A7F841206011208866D
:10066F008F1B7F821206011208868F1C7F80120655
:10067F00011208868F1D7F8A1206011208868F1EAF
:01068F002248
:10084700EF1FAC0670011E4C600A7D027CC7DCFE00
:04085700DDFC80EC58
:01085B00227A
:10048800E4F50820B1157F14FE12084730B1FD7F4E
:10049800147E00120847750801804920B0167F14A1
:1004A8007E0012084730B0FD7F147E0012084775A1
:1004B8000802803020B2167F147E0012084730B23E
:1004C800FD7F147E00120847750803801720B314B7
:1004D8007F147E0012084730B3FD7F147E00120897
:0604E80047750804AF088F
:0104EE0022EB
:100805005389F0438901758A66758CFCC28DD28C3B
:07081500D2A9D2AFC2B92243
:0300000002039365
:0C039300787FE4F6D8FD75812E0203DAB5
:1002DD00C2D530F707B2D563F0FF05F030E70CB2A9
:1002ED00D5F4048463F0FF05F080018430D502F469
:0202FD000422D9
:1002FF00BB010CE58229F582E5833AF583E02250B4
:10030F0006E92582F8E622BBFE06E92582F8E222FD
:0D031F00E58229F582E5833AF583E4932217
:10032C00EF8DF0A4A8F0CF8CF0A428CE8DF0A42EE5
:02033C00FE229F
:10033E00BC000BBE0029EF8DF084FFADF022E4CCA3
:10034E00F875F008EF2FFFEE33FEEC33FCEE9DEC6C
:10035E00984005FCEE9DFE0FD5F0E9E4CEFD22EDB2
:10036E00F8F5F0EE8420D21CFEADF075F008EF2FFC
:10037E00FFED33FD4007985006D5F0F222C398FDED
:05038E000FD5F0EA228A
:10039F00020552E493A3F8E493A34003F68001F21D
:1003AF0008DFF48029E493A3F85407240CC8C3335F
:1003BF00C4540F4420C8834004F456800146F6DF2E
:1003CF00E4800B01020408102040809008B8E47EFE
:1003DF00019360BCA3FF543F30E509541FFEE49323
:1003EF00A360010ECF54C025E060A840B8E493A3EA
:1003FF00FAE493A3F8E493A3C8C582C8CAC583CA15
:10040F00F0A3C8C582C8CAC583CADFE9DEE780BECC
:0108C1000036
:00000001FF
