:1003AC0050617373776F72643A0041636365737362
:1003BC0020737563636565642100416363657373C2
:0903CC002044656E69656421009E
:10018C000202161200038F25E52560F7D3940A505E
:10019C0024AE23AF247C007D0A1202678E238F24A9
:1001AC00E52575F00A84E5F02524F524E43523F5DE
:1001BC00230522801AE525B40B15AE23AF247C0051
:1001CC007D0A1202798E238F24E52260021522E526
:1001DC0022604A54037046E524B4B610E523B401FA
:1001EC000B12045E7BFF7A0379B6800912045E7BE6
:1001FC00FF7A0379C67D017F011203D5E4F523F55F
:10020C0024F5227FDC7E0512044912045E7BFF7A02
:10021C000379AC7D017F011203D502018F750C04AB
:0E022C00AB24AA237D017F0212041602018F6B
:10044900EF1FAC0670011E4C600A7D027CC7DCFE02
:04045900DDFC80EC5A
:01045D00227C
:06047200C2A58F80D2A795
:080478007F027EEFDEFEDFFCD7
:010480002259
:0A048D00C2A6120472C2A70204788E
:1003F800CFCDCFCECCCE1202797C007D0A12027905
:04040800ED2430FFB0
:0A040C00D2A6120472C2A7020478FF
:10043300AE07BE0104ED148006BE0209ED243F445D
:0604430080FF12048D226F
:10045E007F3812048D7F0C12048D7F0612048D7F5F
:04046E000102048DF6
:0A049700AC03120433AF0402040C9E
:0603D5008B088A09890A69
:1003DB00120433E4FDAB08AA09A90A8D82758300C8
:0C03EB0012023AFF600612040C0D80E9BB
:0103F70022E3
:0C0379007F0AEA24FFFDE434FFFC7E0054
:080385008E0D8F0E8C0F8D1000
:10038D007F017E00E4FBEBC39510E50F6480F874EC
:0E039D008098500AAC0DAD0E1202670B80E87E
:0103AB00222F
:040416008A0A8B0BB8
:10041A00120433AA0CEAD39400400D120379AC0AF1
:08042A00AD0B1203F81A80ED7E
:0104320022A7
:1002CE00120433C3EA64809480400B7F2B12040C1B
:1002DE008A168B17800E7F2D12040CC3E49BF51724
:1002EE00E49AF516AA15EAD39400400D120379ACE0
:0902FE0016AD171203F81A80ED89
:0103070022D3
:040308008A1A8B1BA7
:10030C00120433AA1CEAD3940040297F1012037BF9
:10031C00AC1AAD1BCFCDCFCECCCE120279EF540F91
:10032C00FEC3940AEE5004243080022437FF1204DA
:04033C000C1A80D146
:01034000229A
:040341008A1F8B2064
:10034500120433AA21EAD394004028EA24FFFDE4ED
:1003550034FFFC7F027E00120385AC1FAD20CFCD9C
:10036500CFCECCCE120279EF54012430FF12040C0B
:030375001A80D219
:010378002262
:10000300E4F5087590FFC2932097137F14FE120442
:10001300493097FD7F147E0012044975080120962C
:10002300147F147E001204493096FD7F147E001263
:1000330004497508052095147F147E001204493085
:1000430095FD7F147E001204497508092094147FDE
:10005300147E001204493094FD7F147E001204497B
:1000630075080D7590FFC2922097147F147E0012BD
:1000730004493097FD7F147E00120449750802205D
:1000830096147F147E001204493096FD7F147E007F
:100093001204497508062095147F147E0012044942
:1000A3003095FD7F147E0012044975080A209414CC
:1000B3007F147E001204493094FD7F147E001204E5
:1000C3004975080E7590FFC2912097147F147E0026
:1000D3001204493097FD7F147E001204497508030A
:1000E3002096147F147E001204493096FD7F147EFF
:1000F300001204497508072095147F147E0012042A
:10010300493095FD7F147E0012044975080B209435
:10011300147F147E001204493094FD7F147E001274
:10012300044975080F7590FFC2902097147F147EC1
:10013300001204493097FD7F147E001204497508AC
:10014300042096147F147E001204493096FD7F1418
:100153007E001204497508082095147F147E00124E
:1001630004493095FD7F147E0012044975080C2064
:1001730094147F147E001204493094FD7F147E0092
:08018300120449750810AF08D1
:01018B002251
:0300000002048176
:0C048100787FE4F6D8FD75812502018C1F
:10023A00BB010CE58229F582E5833AF583E0225079
:10024A0006E92582F8E622BBFE06E92582F8E222C3
:0D025A00E58229F582E5833AF583E49322DD
:10026700EF8DF0A4A8F0CF8CF0A428CE8DF0A42EAB
:02027700FE2265
:10027900BC000BBE0029EF8DF084FFADF022E4CC69
:10028900F875F008EF2FFFEE33FEEC33FCEE9DEC32
:10029900984005FCEE9DFE0FD5F0E9E4CEFD22ED78
:1002A900F8F5F0EE8420D21CFEADF075F008EF2FC2
:1002B900FFED33FD4007985006D5F0F222C398FDB3
:0502C9000FD5F0EA2250
:00000001FF
