:10047C0020202D20202D20200020203A20203A2042
:02048C0020004E
:100123001204551204CD7BFF7A04797C7D017F0193
:100133001203CC7BFF7A0479857D017F021203CC05
:100143001201A51202ADE518FB7A00750C027D01C0
:100153007F0112040DE519FB7A00750C027D047F03
:100163000112040DE51AFB7A00750C027D077F016D
:1001730012040DE51BFB7A00750C027D017F021250
:10018300040DE51CFB7A00750C027D047F0212044A
:100193000DE51DFB7A00750C027D077F0212040D2D
:0201A30080A139
:0604A000C2A58F80D2A767
:0804A6007F027EEFDEFEDFFCA9
:0104AE00222B
:0A04AF00C2A61204A0C2A70204A610
:1003EF00CFCDCFCECCCE1200427C007D0A12004280
:0403FF00ED2430FFBA
:0A040300D2A61204A0C2A70204A6AC
:10042A00AE07BE0104ED148006BE0209ED243F4466
:06043A0080FF1204AF2256
:100455007F381204AF7F0C1204AF7F061204AF7F02
:04046500010204AFDD
:0A04B900AC0312042AAF040204038E
:0603CC008B088A09890A72
:1003D20012042AE4FDAB08AA09A90A8D82758300DA
:0C03E200120003FF60061204030D80E906
:0103EE0022EC
:0C0399007F0AEA24FFFDE434FFFC7E0034
:0803A5008E0D8F0E8C0F8D10E0
:1003AD007F017E00E4FBEBC39510E50F6480F874CC
:0E03BD008098500AAC0DAD0E1200300B80E897
:0103CB00220F
:04040D008A0A8B0BC1
:1004110012042AAA0CEAD39400400D120399AC0AE3
:08042100AD0B1203EF1A80ED90
:0104290022B0
:1002EE0012042AC3EA64809480400B7F2B1204030D
:1002FE008A168B17800E7F2D120403C3E49BF5170D
:10030E00E49AF516AA15EAD39400400D120399AC9F
:09031E0016AD171203EF1A80ED71
:0103270022B3
:040328008A218B2279
:10032C0012042AAA23EAD3940040297F1012039BBB
:10033C00AC21AD22CFCDCFCECCCE120042EF540F9C
:10034C00FEC3940AEE5004243080022437FF1204BA
:04035C00031A80D12F
:01036000227A
:040361008A268B2736
:1003650012042AAA28EAD394004028EA24FFFDE4CF
:1003750034FFFC7F027E001203A5AC26AD27CFCD4E
:10038500CFCECCCE120042EF54012430FF1204032D
:030395001A80D2F9
:010398002242
:0904C300071818061612080F06AE
:0504CD00C2B5C2B62219
:060208008C088D09AB0714
:10020E00D2B5E4FD7E007401A805088005C333CE87
:10021E0033CED8F9FFEBF582EF558224FF92B4D29C
:10022E00B6C2B60DBD08DDE4FD7E007401A805085A
:10023E008005C333CE33CED8F9FFE5085EFEE5095F
:10024E005F4E24FF92B4D2B6C2B60DBD08DBC2B566
:01025E00227D
:02025F00AD07E9
:10026100E4F9430501D2B5FB7E007401A8030880BF
:1002710005C333CE33CED8F9FFEDF582EF55822495
:10028100FF92B4C2B6D2B60BBB08DDE4FBD2B6C254
:10029100B630B40DA8037401088002C333D8FC4200
:0B02A100010BBB08E8C2B5C2B4AF01FE
:0102AC00222F
:10046900EF75F00A84C454F0FEEF75F00A84EE25A6
:02047900F0FF92
:01047B00225E
:03048E0012025FF8
:0E049100EFC4540F75F00AA4FEEF540F2EFFB7
:01049F00223A
:1001A500E4FDFC7F8E120208AF18120469EFFD7F93
:1001B5008C120208AF19120469EFFD7F881202083C
:1001C500AF1A120469EFFD7F86120208AF1B1204F5
:1001D50069EFFD7F84120208AF1C120469EFFD7FF1
:1001E50082120208AF1D120469EFFD7F801202081A
:1001F500AF1E120469EFFD7F8A1202087D807F8E93
:03020500020208EA
:1002AD007F8C12048E8F187F8812048E8F197F8693
:1002BD0012025F1204918F1A7F8412025F12049151
:1002CD008F1B7F8212025F1204918F1C7F8012029E
:1002DD005F1204918F1D7F8A12025F1204918F1E8F
:0102ED0022EE
:10044000EF1FAC0670011E4C600A7D027CC7DCFE0B
:04045000DDFC80EC63
:010454002285
:0300000002009764
:0C009700787FE4F6D8FD7581280200DEB9
:10000300BB010CE58229F582E5833AF583E02250B2
:1000130006E92582F8E622BBFE06E92582F8E222FC
:0D002300E58229F582E5833AF583E4932216
:10003000EF8DF0A4A8F0CF8CF0A428CE8DF0A42EE4
:02004000FE229E
:10004200BC000BBE0029EF8DF084FFADF022E4CCA2
:10005200F875F008EF2FFFEE33FEEC33FCEE9DEC6B
:10006200984005FCEE9DFE0FD5F0E9E4CEFD22EDB1
:10007200F8F5F0EE8420D21CFEADF075F008EF2FFB
:10008200FFED33FD4007985006D5F0F222C398FDEC
:050092000FD5F0EA2289
:1000A300020123E493A3F8E493A34003F68001F24F
:1000B30008DFF48029E493A3F85407240CC8C3335E
:1000C300C4540F4420C8834004F456800146F6DF2D
:1000D300E4800B01020408102040809004C3E47EF6
:1000E300019360BCA3FF543F30E509541FFEE49322
:1000F300A360010ECF54C025E060A840B8E493A3E9
:10010300FAE493A3F8E493A3C8C582C8CAC583CA13
:10011300F0A3C8C582C8CAC583CADFE9DEE780BECB
:0104CC00002F
:00000001FF
