:1004D60050617373776F72643A004F4B2000455238
:0204E6005200C2
:04050B0002230000C7
:10018C001204C27BFF7A0479D67D017F01120439F7
:10019C001200038F25E52560F7D3940A5037E5222A
:1001AC00C394045022AE23AF247C007D0A12026853
:1001BC008E238F24E52575F00A84E5F02524F5249B
:1001CC00E43523F5230522750C04AB24AA237D0109
:1001DC007F0212047AE525640B7034E524B4B60D65
:1001EC00E523B401087BFF7A0479E080067BFF7A73
:1001FC000479E47D0E7F01120439E4F523F524F52E
:10020C0022750C04AB24AA237D017F0212047AE52B
:10021C0025640C600302019CF523F524F522750C72
:0F022C0004AB24AA237D017F0212047A02019CF5
:1004AD00EF1FAC0670011E4C600A7D027CC7DCFE9E
:0404BD00DDFC80ECF6
:0104C1002218
:0604E800C2A58F80D2A71F
:0804EE007F027EEFDEFEDFFC61
:0104F60022E3
:0A04F700C2A61204E8C2A70204EE38
:10045C00CFCDCFCECCCE12027A7C007D0A12027A9E
:04046C00ED2430FF4C
:0A047000D2A61204E8C2A70204EEAF
:10049700AE07BE0104ED148006BE0209ED243F44F9
:0604A70080FF1204F722A1
:1004C2007F381204F77F0C1204F77F061204F77FBD
:0404D200010204F728
:0A050100AC03120497AF040204706B
:060439008B088A09890A04
:10043F00120497E4FDAB08AA09A90A8D82758300FF
:0C044F0012023BFF60061204700D80E9F1
:01045B00227E
:0C0406007F0AEA24FFFDE434FFFC7E00C6
:080412008E0D8F0E8C0F8D1072
:10041A007F017E00E4FBEBC39510E50F6480F8745E
:0E042A008098500AAC0DAD0E1202680B80E8EF
:0104380022A1
:04047A008A0A8B0B54
:10047E00120497AA0CEAD39400400D120406AC0A9B
:08048E00AD0B12045C1A80EDB5
:010496002243
:10035B00120497C3EA64809480400B7F2B120470C5
:10036B008A168B17800E7F2D120470C3E49BF51732
:10037B00E49AF516AA15EAD39400400D120406ACC4
:09038B0016AD1712045C1A80ED96
:010394002246
:040395008A1A8B1B1A
:10039900120497AA1CEAD3940040297F101204087A
:1003A900AC1AAD1BCFCDCFCECCCE12027AEF540F03
:1003B900FEC3940AEE5004243080022437FF12044D
:0403C900701A80D155
:0103CD00220D
:0403CE008A1F8B20D7
:1003D200120497AA21EAD394004028EA24FFFDE4FC
:1003E20034FFFC7F027E00120412AC1FAD20CFCD81
:1003F200CFCECCCE12027AEF54012430FF12047019
:030402001A80D28B
:0104050022D4
:10000300E4F5087590FFC2932097137F14FE120442
:10001300AD3097FD7F147E001204AD750801209664
:10002300147F147E001204AD3096FD7F147E0012FF
:1000330004AD7508052095147F147E001204AD30BD
:1000430095FD7F147E001204AD7508092094147F7A
:10005300147E001204AD3094FD7F147E001204ADB3
:1000630075080D7590FFC2922097147F147E0012BD
:1000730004AD3097FD7F147E001204AD7508022095
:1000830096147F147E001204AD3096FD7F147E001B
:100093001204AD7508062095147F147E001204AD7A
:1000A3003095FD7F147E001204AD75080A20941468
:1000B3007F147E001204AD3094FD7F147E00120481
:1000C300AD75080E7590FFC2912097147F147E00C2
:1000D3001204AD3097FD7F147E001204AD75080342
:1000E3002096147F147E001204AD3096FD7F147E9B
:1000F300001204AD7508072095147F147E001204C6
:10010300AD3095FD7F147E001204AD75080B20946D
:10011300147F147E001204AD3094FD7F147E001210
:1001230004AD75080F7590FFC2902097147F147E5D
:10013300001204AD3097FD7F147E001204AD7508E4
:10014300042096147F147E001204AD3096FD7F14B4
:100153007E001204AD7508082095147F147E0012EA
:1001630004AD3095FD7F147E001204AD75080C209C
:1001730094147F147E001204AD3094FD7F147E002E
:080183001204AD750810AF086D
:01018B002251
:030000000202CF2A
:0C02CF00787FE4F6D8FD75812502031647
:10023B00BB010CE58229F582E5833AF583E0225078
:10024B0006E92582F8E622BBFE06E92582F8E222C2
:0D025B00E58229F582E5833AF583E49322DC
:10026800EF8DF0A4A8F0CF8CF0A428CE8DF0A42EAA
:02027800FE2264
:10027A00BC000BBE0029EF8DF084FFADF022E4CC68
:10028A00F875F008EF2FFFEE33FEEC33FCEE9DEC31
:10029A00984005FCEE9DFE0FD5F0E9E4CEFD22ED77
:1002AA00F8F5F0EE8420D21CFEADF075F008EF2FC1
:1002BA00FFED33FD4007985006D5F0F222C398FDB2
:0502CA000FD5F0EA224F
:1002DB0002018CE493A3F8E493A34003F68001F2AC
:1002EB0008DFF48029E493A3F85407240CC8C33324
:1002FB00C4540F4420C8834004F456800146F6DFF3
:10030B00E4800B010204081020408090050BE47E72
:10031B00019360BCA3FF543F30E509541FFEE493E7
:10032B00A360010ECF54C025E060A840B8E493A3AE
:10033B00FAE493A3F8E493A3C8C582C8CAC583CAD9
:10034B00F0A3C8C582C8CAC583CADFE9DEE780BE91
:01050F0000EB
:00000001FF
