:0801E5000224000002260000C4
:10016F001202441200038F29E52964017023052B25
:10017F00532B03E52B7002F528E52BB401037528EB
:10018F0032E52BB4020375284BE52BB40303752816
:0D019F0064E52BFD7C007F0112010980C684
:03000B0002009A56
:10009A00C0E0C0F0C083C082C0D075D000C000C02C
:0D00AA0001C002C003C004C005C006C007AD
:1000B700758AA4758CFF0525E52570020524052A98
:1000C700E52A75F0648485F02AE52AC3952850044B
:1000D700D2908002C290E52564024524700912017E
:0700E700AC75240075250033
:1000EE00D007D006D005D004D003D002D001D00066
:0B00FE00D0D0D082D083D0F0D0E03210
:10025B00EF1FAC0670011E4C600A7D027CC7DCFEF2
:04026B00DDFC80EC4A
:01026F00226C
:05000300AF2EE4F52E14
:0100080022D5
:10022B00E4FF20B1020F2220B0037F022220B20391
:08023B007F032220B3027F04BF
:010243002298
:1001AC00852C2D12022B8F2CE52DB40107E52C701C
:1001BC0003752E01E52DB40207E52C7003752E0294
:1001CC00E52DB40307E52C7003752E03E52DB4045F
:0801DC0007E52C7003752E04E9
:0101E40022F8
:1001ED00090900100A0A0A0A0A0A0A12123F065BD6
:1001FD004F666D7D077F6F777F393F7971004001C5
:02020D000801E6
:09027000AE0574092FF8A6062260
:10010900E4F580EF14B40800505490012175F00310
:10011900A4C58325F0C5837302013902013D02019B
:1001290041020145020149020151020159020161DD
:10013900D2A4800ED2A48012D2A48016D2A4801A8E
:10014900C2A4D2A3D2A28016C2A4D2A3C2A2800EF4
:10015900C2A4C2A3D2A28006C2A4C2A3C2A274121C
:060169002DF8E6F58022EE
:1002100074092508F8E6FD7C00AF081201090508FD
:0A022000E508D394084003750801B7
:01022A0022B1
:100244005389F0438901758AA4758CFFC28DD28CC1
:07025400D2A9D2AFC2B9220A
:0300000002000EED
:0C000E00787FE4F6D8FD75812E020055C5
:10001A0002016FE493A3F8E493A34003F68001F28C
:10002A0008DFF48029E493A3F85407240CC8C333E7
:10003A00C4540F4420C8834004F456800146F6DFB6
:10004A00E4800B01020408102040809001E5E47E60
:10005A00019360BCA3FF543F30E509541FFEE493AB
:10006A00A360010ECF54C025E060A840B8E493A372
:10007A00FAE493A3F8E493A3C8C582C8CAC583CA9D
:10008A00F0A3C8C582C8CAC583CADFE9DEE780BE55
:01020F0000EE
:00000001FF
