:1002BF0054696D6520666F72206E6F772069733A8F
:0302CF00003A00F2
:1000A2001202AB7BFF7A0279BF7D017F011202202F
:1000B2007BFF7A0279D07D037F021202207BFF7AD6
:1000C2000279D07D067F0212022012027EE51BFB1E
:1000D2007A00750C027D077F02120261E51CFB7A31
:1000E20000750C027D047F02120261E51AFB7A00A0
:0C00F200750C027D017F0212026180D1BA
:03000B000200FEF2
:0400FE00C0E0C0D0CE
:10010200758A66758CFC0519E51970020518C39489
:10011200E8E51894034024751800751900051BE5DD
:100122001BB43C17751B00051CE51CB43C0D751C6B
:0B01320000051AE51AB41803751A0046
:05013D00D0D0D0E0323B
:10027E005389F0438901758A66758CFCC28DD28CC8
:07028E00D2A9D2AFC2B922D0
:0602D200C2A58F80D2A737
:0802D8007F027EEFDEFEDFFC79
:0102E00022FB
:0A02ED00C2A61202D2C2A70202D874
:10024300CFCDCFCECCCE12004D7C007D0A12004D17
:04025300ED2430FF67
:0A025700D2A61202D2C2A70202D8FA
:10029500AE07BE0104ED148006BE0209ED243F44FD
:0602A50080FF1202ED22B1
:1002AB007F381202ED7F0C1202ED7F061202ED7FFA
:0402BB00010202ED4D
:0A02F700AC03120295AF0402025797
:060220008B088A09890A1F
:10022600120295E4FDAB08AA09A90A8D827583001E
:0C02360012000EFF60061202570D80E956
:010242002299
:0C01ED007F0AEA24FFFDE434FFFC7E00E2
:0801F9008E0D8F0E8C0F8D108E
:100201007F017E00E4FBEBC39510E50F6480F87479
:0E0211008098500AAC0DAD0E12003B0B80E839
:01021F0022BC
:040261008A0A8B0B6F
:10026500120295AA0CEAD39400400D1201EDAC0AD6
:08027500AD0B1202431A80EDEB
:01027D00225E
:10014200120295C3EA64809480400B7F2B120257FF
:100152008A168B17800E7F2D120257C3E49BF51768
:10016200E49AF516AA15EAD39400400D1201EDACFB
:0901720016AD171202431A80EDCC
:01017B002261
:04017C008A1F8B202B
:10018000120295AA21EAD3940040297F101201EFB0
:10019000AC1FAD20CFCDCFCECCCE12004DEF540F43
:1001A000FEC3940AEE5004243080022437FF12026A
:0401B000571A80D189
:0101B4002228
:0401B5008A248B25E8
:1001B900120295AA26EAD394004028EA24FFFDE416
:1001C90034FFFC7F027E001201F9AC24AD25CFCDAE
:1001D900CFCECCCE12004DEF54012430FF1202577E
:0301E9001A80D2A7
:0101EC0022F0
:030000000202E118
:0C02E100787FE4F6D8FD7581260200A2AB
:10000E00BB010CE58229F582E5833AF583E02250A7
:10001E0006E92582F8E622BBFE06E92582F8E222F1
:0D002E00E58229F582E5833AF583E493220B
:10003B00EF8DF0A4A8F0CF8CF0A428CE8DF0A42ED9
:02004B00FE2293
:10004D00BC000BBE0029EF8DF084FFADF022E4CC97
:10005D00F875F008EF2FFFEE33FEEC33FCEE9DEC60
:10006D00984005FCEE9DFE0FD5F0E9E4CEFD22EDA6
:10007D00F8F5F0EE8420D21CFEADF075F008EF2FF0
:10008D00FFED33FD4007985006D5F0F222C398FDE1
:05009D000FD5F0EA227E
:00000001FF
