:100139001201ECE4F5268526247F0A7E00120203CB
:100149000526E526C3946440ED752664E526D39417
:100159000040E08526247F0A7E00120203152680CE
:01016900EBAA
:03000B0002016A85
:10016A00C0E0C0F0C0D0758AA4758CFF0525E525CE
:10017A0075F0648485F025E525C395245004D2A141
:0B018A008002C2A1D0D0D0F0D0E03243
:10020300EF1FAC0670011E4C600A7D027CC7DCFE4A
:04021300DDFC80ECA2
:0102170022C4
:05000300AF29E4F5291E
:0100080022D5
:1001D300E4FF20B1020F2220B0037F022220B203EA
:0801E3007F032220B3027F0418
:0101EB0022F1
:100100008527281201D38F27E528B40107E527703A
:1001100003752901E528B40207E527700375290254
:10012000E528B40307E5277003752903E528B4041F
:0801300007E52770037529049F
:0101380022A4
:10019500090900100A0A0A0A0A0A0A12123F065B2E
:1001A5004F666D7D077F6F777F393F79710040011D
:0201B50008013F
:09021800AE0574092FF8A60622B8
:10009A00E4F580EF14B4080050549000B275F003F0
:1000AA00A4C58325F0C583730200CA0200CE0200EC
:1000BA00D20200D60200DA0200E20200EA0200F2EC
:1000CA00D2A4800ED2A48012D2A48016D2A4801AFE
:1000DA00C2A4D2A3D2A28016C2A4D2A3C2A2800E64
:1000EA00C2A4C2A3D2A28006C2A4C2A3C2A274128C
:0600FA002DF8E6F580225E
:1001B80074092508F8E6FD7C00AF0812009A0508C6
:0A01C800E508D39408400375080110
:0101D200220A
:1001EC005389F0438901758AA4758CFFC28DD28C1A
:0701FC00D2A9D2AFC2B92263
:0300000002000EED
:0C000E00787FE4F6D8FD758129020055CA
:10001A00020139E493A3F8E493A34003F68001F2C2
:10002A0008DFF48029E493A3F85407240CC8C333E7
:10003A00C4540F4420C8834004F456800146F6DFB6
:10004A00E4800B0102040810204080900195E47EB0
:10005A00019360BCA3FF543F30E509541FFEE493AB
:10006A00A360010ECF54C025E060A840B8E493A372
:10007A00FAE493A3F8E493A3C8C582C8CAC583CA9D
:10008A00F0A3C8C582C8CAC583CADFE9DEE780BE55
:0101B7000047
:00000001FF
