:0300FE00010A00F4
:0400E1007F147E000A
:0400E500EF4E601466
:1000E900007508027509C7D509FDD508FAEF1F7013
:0200F900EB1EFC
:0300FB0080E82278
:10008F0075A0FE20B1231200E130B1FD1200E10591
:10009F000AE50AB40803E4F50AAF0AA807740108D1
:1000AF008002C333D8FCF4F5A020B0D71200E130A2
:1000BF00B0FD1200E1E50A7005750A078002150A06
:1000CF00AF0AA8077401088002C333D8FCF4F5A067
:0200DF0080B1EE
:03000000020003F8
:0C000300787FE4F6D8FD75810A02004AFF
:10000F0002008FE493A3F8E493A34003F68001F278
:10001F0008DFF48029E493A3F85407240CC8C333F2
:10002F00C4540F4420C8834004F456800146F6DFC1
:10003F00E4800B01020408102040809000FEE47E53
:10004F00019360BCA3FF543F30E509541FFEE493B6
:10005F00A360010ECF54C025E060A840B8E493A37D
:10006F00FAE493A3F8E493A3C8C582C8CAC583CAA8
:10007F00F0A3C8C582C8CAC583CADFE9DEE780BE60
:0101010000FD
:00000001FF
