:1001F4001204011203EFE4FDFC7F0112025F1203FB
:10020400A7EF60FA1203FE8F331203FB8F34E5333A
:10021400B4160DE4FF120404E4FDFC7F0112025F36
:10022400E533B40C0E7F321204047D017C007F019F
:1002340012025FE533B4180E7F4B1204047D027C76
:10024400007F0112025FE533B45EB37F64120404DD
:0B0254007D037C007F0112025F80A38D
:10000600EF1FAC0670011E4C600A7D027CC7DCFE49
:04001600DDFC80ECA1
:01001A0022C3
:0503E900AF32E4F53223
:0103EE0022EC
:10036700E4FF20B1020F2220B0037F022220B20354
:080377007F032220B3027F0482
:01037F00225B
:1002C5008530311203678F30E531B40107E53070B1
:1002D50003753201E531B40207E53070037532026A
:1002E500E531B40307E5307003753203E531B40435
:0802F50007E5307003753204C7
:0102FD0022DE
:10032900090900100A0A0A0A0A0A0A12123F065B98
:100339004F666D7D077F6F777F393F797100400187
:020349000801A9
:0903D700AE0574092FF8A60622F8
:10025F00E4F580EF14B40800505490027775F00362
:10026F00A4C58325F0C5837302028F020293020295
:10027F009702029B02029F0202A70202AF0202B77D
:10028F00D2A4800ED2A48012D2A48016D2A4801A37
:10029F00C2A4D2A3D2A28016C2A4D2A3C2A2800E9D
:1002AF00C2A4C2A3D2A28006C2A4C2A3C2A27412C5
:0602BF002DF8E6F5802297
:10034C0074092508F8E6FD7C00AF0812025F050869
:0A035C00E508D3940840037508017A
:010366002274
:1003800053890F438910758BA4758DFFC28FD28E50
:07039000D2ABD2AFC2BB22C9
:0B03C100D288C289D2A8D2AFD2B822E5
:0603EF001203970203C196
:0D03A700E52B6006E4F52B7F01227F00228C
:0D03B400E5296006E4F5297F01227F002283
:0303FB00AF282206
:0303FE00AF272204
:0300030002001EDA
:10001E00C0E0C0F0C083C082C0D075D000C000C0A8
:10002E0001C002C003C004C005C006C007E52470AD
:10003E000CFFFE1203CC7F011203F58049E5246408
:10004E000170491203E08E258F26E4FFFE1203CCC9
:10005E00D3E52694D4E52594304010E52694B0E5FA
:10006E00259436500675240202014DD3E526940AD6
:10007E00E52594284010E52694F2E525942B5006AC
:10008E0075290102014575240102014DE524640222
:10009E00600302014D1203E08E258F26E4FFFE124F
:1000AE0003CCD3E526946CE5259402402BE52694EB
:1000BE0054E52594065021E52A131313541F242CBE
:1000CE00F8C000E6FFE52A5407FEF8740108800226
:1000DE00C333D8FCF45F8033D3E52694D6E525945C
:1000EE0006402FE52694BEE525940A5025E52A13F1
:1000FE001313541F242CF8C000E6FFE52A5407FE04
:10010E00F87401088002C333D8FC4FD000F6052ADC
:10011E008006752401752A00E52AC39420402075B7
:10012E002A00E52DF4B52C0FE52FF4B52E09852CFC
:10013E0028852E27752B01E4FF1203F5752400D0B8
:10014E0007D006D005D004D003D002D001D000D005
:0A015E00D0D082D083D0F0D0E03280
:100397005389F0438901E4F58AF58CC28DC28C221A
:0B03CC00AD07AC068C8CAF058F8A22B9
:0903E000AF8CEFFEAD8AEDFF22A7
:0603F500EF24FF928C22B0
:0304010002038073
:030404008F35220F
:03001B000202FEE0
:1002FE00C0E0C0F0C0D0758BA4758DFF0536E53615
:10030E0075F0648485F036E536C395355004D29089
:0B031E008002C290D0D0D0F0D0E032BE
:0300000002016892
:0C016800787FE4F6D8FD7581360201AF07
:100174000201F4E493A3F8E493A34003F68001F2AC
:1001840008DFF48029E493A3F85407240CC8C3338C
:10019400C4540F4420C8834004F456800146F6DF5B
:1001A400E4800B0102040810204080900329E47EBF
:1001B400019360BCA3FF543F30E509541FFEE49350
:1001C400A360010ECF54C025E060A840B8E493A317
:1001D400FAE493A3F8E493A3C8C582C8CAC583CA42
:1001E400F0A3C8C582C8CAC583CADFE9DEE780BEFA
:01034B0000B1
:00000001FF
