:10035B005772697465204F4B0020202020202020ED
:10036B00200052656164204F4B002020202020206C
:02037B00200060
:10000300120401750C05AB23AA227D017F011203A3
:10001300B91201768F24E524B401150523E5237075
:10002300020522750C05FBAA227D017F011203B98B
:10003300E524B40216E523152370021522750C0579
:10004300AB23AA227D017F011203B9E52464037067
:1000530040FCAD23FF1203147F057E001203ECE581
:1000630022FD7C007F011203147F057E001203EC46
:100073007BFF7A03795B7D017F021203387FE87E81
:10008300031203EC7BFF7A0379647D017F02120381
:1000930038E52464046003020014FF1202BB7522D6
:1000A300008F237F011202BBEFFEEE4222750C0587
:1000B300AB23AA227D017F011203B97BFF7A037967
:1000C3006D7D017F021203387FE87E031203EC7B10
:0F00D300FF7A0379757D017F0212033802001452
:1003EC00EF1FAC0670011E4C600A7D027CC7DCFE60
:0403FC00DDFC80ECB8
:0104000022D9
:10017600E4F50820B1157F14FE1203EC30B1FD7FC3
:10018600147E001203EC750801804920B0167F1416
:100196007E001203EC30B0FD7F147E001203EC7576
:1001A6000802803020B2167F147E001203EC30B2B3
:1001B600FD7F147E001203EC750803801720B3142C
:1001C6007F147E001203EC30B3FD7F147E00120311
:0601D600EC750804AF08FF
:0101DC002200
:06041500C2A58F80D2A7F2
:08041B007F027EEFDEFEDFFC34
:0104230022B6
:0A043D00C2A6120415C2A702041B98
:10037D00CFCDCFCECCCE1201217C007D0A12012132
:04038D00ED2430FF2C
:0A039100D2A6120415C2A702041B35
:1003D600AE07BE0104ED148006BE0209ED243F44BB
:0603E60080FF12043D221D
:100401007F3812043D7F0C12043D7F0612043D7FAC
:040411000102043DA3
:0A044700AC031203D6AF04020391C8
:060338008B088A09890A06
:10033E001203D6E4FDAB08AA09A90A8D82758300C3
:0C034E001200E2FF60061203910D80E92E
:01035A002280
:0C0288007F0AEA24FFFDE434FFFC7E0046
:080294008E0D8F0E8C0F8D10F2
:10029C007F017E00E4FBEBC39510E50F6480F874DE
:0E02AC008098500AAC0DAD0E12010F0B80E8C9
:0102BA002221
:0403B9008A0A8B0B16
:1003BD001203D6AA0CEAD39400400D120288AC0A9F
:0803CD00AD0B12037D1A80ED57
:0103D5002205
:1001DD001203D6C3EA64809480400B7F2B120391E7
:1001ED008A168B17800E7F2D120391C3E49BF51792
:1001FD00E49AF516AA15EAD39400400D120288ACC4
:09020D0016AD1712037D1A80EDF5
:0102160022C5
:040217008A1A8B1B99
:10021B001203D6AA1CEAD3940040297F1012028A3B
:10022B00AC1AAD1BCFCDCFCECCCE120121EF540FDC
:10023B00FEC3940AEE5004243080022437FF1203CD
:04024B00911A80D1B3
:01024F00228C
:040250008A1F8B2056
:100254001203D6AA21EAD394004028EA24FFFDE43D
:1002640034FFFC7F027E00120294AC1FAD20CFCD80
:10027400CFCECCCE120121EF54012430FF120391D2
:030284001A80D20B
:010287002254
:09045B00D2A0D2A1C2A0C2A122CC
:07046400C2A0D2A1D2A02228
:0202EB00AD075D
:1002ED00E4FB7E007480A803088006CEA2E713CE3F
:1002FD0013D8F8FFEDF582EF558224FF92A0D2A11D
:06030D00C2A10BBB08DCDD
:0103130022C7
:10039B00E4FFD2A0FED2A130A00DA8067480088085
:0D03AB0002C313D8FC4207C2A10EBE08E831
:0103B8002222
:0A045100EF24FF92A1D2A1C2A12264
:0C042400E4FFD2A0D2A130A0010FC2A1C1
:0104300022A9
:100314008F088C098D0A12045B7FA01202EB120471
:1003240024AF081202EB120424AF0A1202EB1204E7
:040334002402046437
:0202BB008F08AA
:1002BD0012045B7FA01202EB120424AF081202EBB2
:1002CD0012042412045B7FA11202EB120424120308
:0D02DD009B8F097F01120451120464AF09C8
:0102EA0022F1
:03000000020431C6
:0C043100787FE4F6D8FD758124020003FA
:1000E200BB010CE58229F582E5833AF583E02250D3
:1000F20006E92582F8E622BBFE06E92582F8E2221D
:0D010200E58229F582E5833AF583E4932236
:10010F00EF8DF0A4A8F0CF8CF0A428CE8DF0A42E04
:02011F00FE22BE
:10012100BC000BBE0029EF8DF084FFADF022E4CCC2
:10013100F875F008EF2FFFEE33FEEC33FCEE9DEC8B
:10014100984005FCEE9DFE0FD5F0E9E4CEFD22EDD1
:10015100F8F5F0EE8420D21CFEADF075F008EF2F1B
:10016100FFED33FD4007985006D5F0F222C398FD0C
:050171000FD5F0EA22A9
:00000001FF
